:1000000000000120ED0600001507000017070000A2
:10001000190700001B0700001D070000000000007A
:100020000000000000000000000000001F070000AA
:100030002107000000000000230700002507000042
:1000400027070000270700002707000027070000F8
:1000500027070000270700002707000027070000E8
:1000600027070000270700002707000027070000D8
:1000700027070000270700002707000027070000C8
:1000800027070000270700002707000027070000B8
:100090002707000027070000A90700002707000026
:1000A0002707000027070000270700002707000098
:1000B00027070000270700000000000000000000E4
:1000C0002707000027070000270700002707000078
:1000D0002707000027070000270700000000000096
:1000E0000000000000000000000000000000000010
:1000F0000000000000000000000000000000000000
:1001000000000000000000000000000000000000EF
:1001100000000000000000000000000000000000DF
:1001200000000000000000000000000000000000CF
:1001300000000000000000000000000000000000BF
:1001400000000000000000000000000000000000AF
:10015000000000000000000000000000000000009F
:10016000000000000000000000000000000000008F
:10017000000000000000000000000000000000007F
:10018000000000000000000000000000000000006F
:10019000000000000000000000000000000000005F
:1001A000000000000000000000000000000000004F
:1001B000000000000000000000000000000000003F
:1001C000000000000000000000000000000000002F
:1001D000000000000000000000000000000000001F
:1001E000000000000000000000000000000000000F
:1001F00000000000000000000000000000000000FF
:1002000010B5054C237833B9044B13B10448AFF350
:1002100000800123237010BD780000200000000042
:100220001835000008B5034B1BB103490348AFF371
:10023000008008BD000000007C0000201835000090
:10024000154B002B08BF134B9D46A3F5803A0021A8
:100250008B460F461348144A121A00F063F80F4BEE
:10026000002B00D098470E4B002B00D09847002061
:10027000002104000D000D48002802D00C48AFF307
:10028000008000F02BF82000290001F045FF00F06D
:1002900011F800BF0000080000000120000000006D
:1002A00000000000780000203C0B0020000000004F
:1002B0000000000008B5074B044613B10021AFF35E
:1002C0000080054B1868836A03B19847204600F008
:1002D00031F800BF000000003831000070B50D4D4E
:1002E0000D4C641BA4100026A64209D10B4D0C4CEA
:1002F00002F016FF641BA4100026A64205D170BDB3
:1003000055F8043B98470136EEE755F8043B98470B
:100310000136F2E77000002070000020700000201D
:100320007400002002440346934200D1704703F852
:10033000011BF9E7FEE700BF30B4B84B1B78062B72
:1003400020D0B74B1B68062B00F08180B54AD2F84D
:10035000883043F47003C2F88830BFF34F8FBFF387
:100360006F8F4FF01023D3F80022002AC0F286814D
:10037000D3F80432002BC0F28181AB4BAB4A1A6038
:1003800030BC7047AA4B1B681D07DAD1A94B1B680C
:1003900003F0F002302A00F09B8003F0E003402BD2
:1003A00000F09680A34B1B6803F0F003302B00F0A5
:1003B000A080A04B1B6803F0F002302A77D003F036
:1003C000E003402B73D09B4B1B6803F0F003302BF2
:1003D00000F01481974B1B6803F0F002302A52D0D2
:1003E00003F0E003402B4ED0924B1B6803F0F00368
:1003F000302B00F0F5808F4B1B6803F0F003302B9F
:1004000000F0D7808B4B1B6803F0F003502B7ED09D
:10041000884B1B6803F0F002302A23D003F0E0037E
:10042000402B1FD0834B1B6803F0F002302A03D00F
:1004300003F0E003402B84D14FF08043D3F8002435
:10044000D20744BF6FF00102C3F8002479E77A4B6A
:100450001B68062B7FF47AAF784A136843F48063F5
:10046000136073E7764B6D4A1B681278754903F089
:100470004F03062A0B607FF464AF6D4B1B681907AE
:100480007FF45FAFCEE7654A11784FF080430022DA
:100490000629C3F80C21C3F81021C3F838257FF4CE
:1004A00050AF634B1B681B077FF44BAF9CE7664B59
:1004B0005A4A1B6812786549C3F34233062A0B6017
:1004C0007FF43FAF5A4B1B6819077FF43AAF7AE7C6
:1004D0005F4B524A1B6812785E49C3F30423062A15
:1004E0000B607FF42EAF524B1B681C077FF429AFC3
:1004F00058E74A4B584A1B7858491160062B7FF43D
:1005000020AF4B4B1B6818077FF41BAF51E74FF030
:100510008052534BD2F80414C3F82015D2F80814B3
:10052000C3F82415D2F80C14C3F82815D2F8101407
:10053000C3F82C15D2F81414C3F83015D2F81814D7
:10054000C3F83415D2F81C14C3F84015D2F820149F
:10055000C3F84415D2F82414C3F84815D2F8281467
:10056000C3F84C15D2F82C14C3F85015D2F8301437
:10057000C3F85415D2F83414C3F86015D2F83814FF
:10058000C3F86415D2F83C14C3F86815D2F84014C7
:100590002248C3F86C15D2F844140278C3F87015D9
:1005A000062A7FF4CEAE224B1B6818077FF4C9AE33
:1005B0002EE71A4B2B4C1B782B492C482C4A05252F
:1005C000256001250D6000243F21062B0460116089
:1005D0007FF4B7AE164B1B681C077FF4B2AE11E771
:1005E0000E4B244A1B780321062B11607FF4A9AE21
:1005F0000F4B1B681D077FF4A4AEFCE61E4A07499B
:10060000D368097823F080730629D3607FF499AE0C
:10061000074B1B681A077FF494AEDBE6E00F00F08F
:100620003001001000ED00E0640000200090D003D5
:10063000E40F00F0E80F00F0340100103C17004018
:1006400058020010E40E0040440200103C05004037
:10065000240300104035014074C007400DF0ADBACE
:1006600000C0004010560040885600401856004018
:1006700014560040A0050040F0ED00E0184A0123A8
:10068000C2F80435D2F80034002BFBD04FF0102311
:100690001521134AC3F80012D2F80034002BFBD006
:1006A0004FF0102315210E4AC3F80412D2F800347B
:1006B000002BFBD000230A49C2F80435D1F80034DE
:1006C000002BFBD0BFF34F8F0649074BCA6802F4DB
:1006D000E0621343CB60BFF34F8F00BFFDE700BF65
:1006E00000E0014000ED00E00400FA050649074A79
:1006F000074B9B1A03DD043BC858D050FBDCFFF7C7
:100700001BFEFFF79DFD000050360000000000209A
:1007100078000020FEE7FEE7FEE7FEE7FEE7FEE7E3
:10072000FEE7FEE7FEE7FEE7074B4FF0A041185C4F
:10073000D1F804350122824022EA03001340C1F8B7
:100740000805C1F80C3570473C310000C20730B4D1
:100750001AD54FF0A0430322C3F844274FF40035C5
:10076000C3F848274FF48024C3F84C274FF40021E6
:10077000C3F850274FF48012C3F80855C3F8084552
:10078000C3F80815C3F8082583070AD54FF0A0431E
:100790000C22C3F83427C3F83827C3F83C27C3F822
:1007A000402730BC704700BF00B583B00849684699
:1007B00000F0F4F8019B43B1D3E90020904768466C
:1007C00000F0F6F8019B002BF6D103B05DF804FBB6
:1007D0004831000010B4034653E8000F0A4643E8CE
:1007E000002494F0000FF7D15DF8044B704700BF70
:1007F00010B4034653E8002F42EA010043E8000426
:1008000094F0000FF6D15DF8044B704710B4034626
:1008100053E8002F02EA010043E8000494F0000FBF
:10082000F6D15DF8044B704710B4034653E8002F2F
:1008300002EB010043E8000494F0000FF6D15DF8EC
:10084000044B704710B4034653E8002FA2EB01009D
:1008500043E8000494F0000FF6D15DF8044B7047B4
:1008600010B40346012253E8001F41EA020043E8A6
:10087000000494F0000FF6D15DF8044B704700BF00
:1008800010B40346002253E8000F00EA020143E8D7
:10089000001494F0000FF6D15DF8044B704700BFD0
:1008A0004A09012301F01F0100EB820003FA01F164
:1008B000FFF79EBF01F01F0201234909934000EB9F
:1008C0008100D943FFF7A2BF4B0901F01F0150F887
:1008D0002300C84000F00100704700BFB8B130B439
:1008E000D0E90112521A0468D2B2531E2160DBB261
:1008F00042B101680A685C1E551C0D601370E3B2BA
:10090000FF2BF6D103680020187130BC70470E2011
:10091000704700BFF0B583B0044600250DF1070015
:100920008DF8075000F098F8D4E900311A688A422F
:1009300010D9511E19602168A3680F6812F8015C74
:100940000A79268AE068DB1BDBB29A4206FB0505C2
:1009500038BF0B719DF8070000F0A4F8284603B0DB
:10096000F0BD00BF30B5054683B000230DF1070090
:100970000C468DF8073000F06FF82A681368591C90
:100980001160E9682A8A641AB4FBF2F41C709DF8BD
:10099000070000F087F803B030BD00BF01600B68AE
:1009A00043604A68934204BF00234360704700BF1E
:1009B000436843B1026891680B44436052689342B4
:1009C00004BF00234360704700B585B00346002193
:1009D00001AA44F20100CDE90111039300F004F8EB
:1009E00005B05DF804FB00BF10B572B600F0C0FBA7
:1009F00000F086F90028FBD1104B114C1149E41A84
:100A0000E408240444F0010000F0B4FA0E4B1B6823
:100A1000DB0700D500BE0D4944F0020000F0AAFA41
:100A2000BFF34F8F0A490B4BCA6802F4E0621343CD
:100A3000CB60BFF34F8F00BFFDE700BF2C35000038
:100A40002C35000054310000F0ED00E06031000072
:100A500000ED00E00400FA0570B4EFF3108472B604
:100A60000D4B9A68AAB90D490D4E01259D60D1F82C
:100A7000805035401D60C1F88060D1F884505D60C1
:100A80004FF0FF33C1F88430027004B962B670BC15
:100A9000704701230370F8E7B40A002000E100E08A
:100AA000FC06FFBD094B9A687AB170B910B4EFF338
:100AB000108172B6064A1C6814605C6854609860C5
:100AC00001B962B65DF8044B70477047B40A002064
:100AD00000E100E0704700BF00B583B0044B009315
:100AE000044A4FF4007300F035F803B05DF804FBDE
:100AF000F90A00009800002012B32DE9F041114FCF
:100B00000E46144600254FF0010802E087F80080E9
:100B1000A4B122467119002000F048FE0544241AB1
:100B20000028F3D13B784BB1074D0A2445F001056D
:100B30004FF47A40A847013CFAD13C70BDE8F081FF
:100B4000704700BF9400002070310000704700BF64
:100B500000F00ABFF0B595B000241D460E460846C9
:100B6000174600F09DFC304623460822099505A94A
:100B70001A9D08970D950A948DF82C400C9400F05E
:100B8000F3FC9DF814308DF81140DDE9061003F0F8
:100B90000302012ACDE9020128D0022A04D03046FE
:100BA00000F082FC15B0F0BDBDF81650C3F3C203CF
:100BB0008DF81030C5F389150827082D2C4628BF5D
:100BC00008243B4622460EA9304600F0CDFC2D1BE2
:100BD000214608AB02AA0EA8274400F097FB002D7F
:100BE000EBD1304600F060FC15B0F0BDBDF81470DC
:100BF000059DC7F38312C3F3C2040EA930469200C9
:100C000008238DF81040C7F3831700F0ADFCC5F33F
:100C1000952508AB3A4628460EA9009302AB00F092
:100C2000FDFA304600F040FC15B0F0BD08B5FFF706
:100C30008FFF0448042100F06DFA034B01225A7122
:100C400008BD00BF4C3500006800002038B50C4BD3
:100C50000C48002400250022C3E90045FF21C3F809
:100C60001824996083F82024C3F8142400F0CCFBE6
:100C7000044610B9044800F0ABFC204638BD00BF64
:100C8000680300205C350000AC31000099B10E4BC8
:100C90000E495B1ADB0815D030B400220C4D02E07F
:100CA000013293420BD035F822408442F8D151F8FA
:100CB000320030BC7047054951F8300070470020C1
:100CC00030BC7047184670474C3500002C3500008A
:100CD00078000020094B013903EBC00003290BD831
:100CE000DFE801F004020806042070470220704784
:100CF0004079704700797047002070472C3500001C
:100D00002DE9F047954CD4E900239A4284B063D092
:100D10000023C4F81834BFF34F8FD4E9013503EA38
:100D20000501CA1C04EB820614F82220500719D5CD
:100D30002768327802F00302012A43D0022A03D145
:100D40007288023303EB921305EA0301D4F8180406
:100D5000CA1C04EB820628B99F4239D914F8222014
:100D60005207E6D404EB81015A1CC96801912A405C
:100D700004EB820201F00301D2680292022903F11E
:100D800002062DD0012900F09580D4F810543DB111
:100D90002B6828469B689847EB681D68002DF7D1A3
:100DA0006F48704B7049C01AC008000440F0020040
:100DB00000F0E0F8D4E90030C01A18BF012004B0F8
:100DC000BDE8F08732880233C2F383121344BBE7D5
:100DD000676004B0BDE8F087002004B0BDE8F0878C
:100DE000BDF806306148C3F38919B9F1500FC84600
:100DF00028BF4FF0500868F38F1308F10801ADF8D1
:100E0000063000F003FB07460028BED000F048FB88
:100E10000023082201A9384600F072FB25EA0603E8
:100E20000133B8EB830F4FEA830A7DD9BAF1000F83
:100E300000F08D8005EA06010331A8EB0A0804EBF7
:100E400081010823524638465FFA88F800F058FBC3
:100E5000474942460AF10803384600F051FB09F1C0
:100E6000030906EB9906D4F81834002B6BD1D4F89B
:100E7000105465B1EB685A7928463946002A5ED08D
:100E80002B681B689847EB681D68002DF2D1384627
:100E900000F00AFB00230DF103008DF80330FFF78B
:100EA000DBFDD4F8183403B966609DF80300FFF742
:100EB000F9FD7FE7BDF804302C48C3F38312062AFE
:100EC00028BF0622911C62F389138900ADF8043013
:100ED00000F09CFA074600283FF457AF00F0E0FA14
:100EE0000023082201A9384600F00AFBBDF80430AF
:100EF00013F4707FB7D04FF00008314629404FEA15
:100F000088030331083304EB81010422384600F0E2
:100F1000F7FABDF8043008F10108C3F38313434521
:100F200006F10106E9D89EE705EA0601033104EB64
:100F3000810142460823384600F0E2FA8FE71D6837
:100F4000002D97D1A3E7384600F0AEFA32E7084902
:100F500042460823384600F0D3FA80E768030020B1
:100F60002C3500002C350000943100005C35000069
:100F7000740300202DE9F04F644C87B0002306462F
:100F80000DF10B008DF80B30A5680191FFF764FDA2
:100F9000D4E9012327681A440132D21B012A00F246
:100FA000858004F21C4804F5836A04F214491BE0AE
:100FB000BDF80E30C3F389130333090C0BEB930B0D
:100FC00048460091FFF75CFC009900283ED040465F
:100FD000C4F804B0FFF728FCD4E9011322681944CF
:100FE0000131891A012962D801214046FFF71CFC12
:100FF0005046FFF735FC4846FFF732FCD4E9013C88
:1010000003EA0C02D11C04EB810014F821E01EF06D
:10101000040F0EF0040129D104EB8202591CD2689E
:10102000039201EA0C0104EB810102F00302012AA0
:10103000C96803F1020B32D0022AB9D00021484618
:101040000091FFF71DFC00990028C0D14046C1E780
:1010500043880BEB93130CEA0302D11C04EB8100D1
:1010600014F8211001F004010029D5D090F800E017
:101070000EF0030EBEF1010F0BD0BEF1020F03F113
:10108000020B02F1030EE3D004EB8E000029EDD138
:10109000C2E702880233C2F383121344DBE7BDF8D0
:1010A0000C30C3F38313090C9B4489E73A46134081
:1010B0000333023205219DF80B0044F8231022600F
:1010C000FFF7F0FC00211248FFF784FB80F31000CB
:1010D000F1007B1C2B40019A01F038013D4004EBEC
:1010E000830341F001010004033540EA164641EA5A
:1010F0008221DE6044F8251094F820341BB1FFF7FC
:10110000FFFD0028FBD107B0BDE8F08F6803002089
:101110008407002030B4154DD5F810140446002083
:1011200071B10B4601E01B6853B1DB681A7982424A
:10113000F9D101300A28F3D14FF0FF3030BC7047AD
:10114000E3681871D5F810344BB1DA68E3681268B7
:101150001A60D5F81034DB681C6030BC7047C5F8E5
:101160001044E268136030BC704700BF6803002081
:1011700038B5094BD3F81044012583F820544CB1FD
:10118000E3685D71236820465B689847E3681C68E4
:10119000002CF5D138BD00BF6803002030B5C388EE
:1011A00085B004460D461BBB217A05291ED0627A04
:1011B00082B9134AA08852F8212003920021FFF738
:1011C00065FD039A0F490346284605B0BDE8304047
:1011D00000F006BCA088FFF77DFD0B4B0B4953F8D0
:1011E0002020284600F0FCFB217AE2E705B030BD64
:1011F000074A00920749084A284600F0F1FBD3E766
:1012000084320000E431000060320000E031000070
:10121000D8310000C0310000B83100002DE9F043A2
:1012200085B04FF0000C0C9C814694F80C8084F83B
:101230000CC00E461746184621461D46FFF7AEFF66
:10124000062F09D8DFE807F0042E343B444F1F0077
:101250004946204600F0C4FB2B7A052B05D06B7A5B
:101260005BB92749204600F0BBFB204600F0ACFBF1
:1012700084F80C8005B0BDE8F083224A224920465C
:1012800000F0AEFBEDE7D6E90413F2680393B36810
:101290000291CDE900324946D6E90023204600F00C
:1012A0009FFBD9E732684946204600F099FBD3E717
:1012B000D6E900234946204600F092FBCCE7B3680C
:1012C0000093D6E900234946204600F089FBC3E796
:1012D000D6E9023201920093D6E90023494620461E
:1012E00000F07EFBB8E7D6E90321B3680291CDE9AF
:1012F00000324946D6E90023204600F071FBABE7F7
:10130000F0310000D8310000E0310000082900D998
:1013100070472DE9F04F9B4683B000241B7B8BF870
:101320000C400D4606465946104690460193DFF89C
:10133000D0902C4FFFF732FF05E0325D013400F012
:101340004FFB082C09D0A54239465846F5D84946E6
:10135000013400F045FB082CF5D12349DFF8A490B7
:10136000224C234F584600F03BFB4FF0000A0DE0A3
:10137000D15D11F0970F08BF2E22214658460AF181
:10138000010A00F02DFBBAF1080F10D0554505D920
:1013900016F80A207E2AEBD92E22EEE74946584657
:1013A0000AF1010A00F01CFBBAF1080FEED198F81F
:1013B0000830052B02D098F8093063B90D4958461A
:1013C00000F00EFB584600F0FFFA019B8BF80C3042
:1013D00003B0BDE8F08F084A0849584600F000FB0A
:1013E000ECE700BFF43100000032000004320000DE
:1013F00017340000F0310000D8310000E031000067
:10140000FC310000EC310000FFF768BA2DE9F04133
:10141000058A0331043D4E198046B6FBF5F6FFF709
:1014200079FAA0B3F6B24FF48073013E0446C5804A
:10143000C0F8008083802BD00346002508E0627945
:10144000AE4202F1010262713860C0F800801FD024
:1014500040461F46FFF75EFA013503460028EED1ED
:101460006779791E17D02246013399421268FBD161
:10147000D2F800805FB12668002501E03446366866
:10148000214601354046FFF76DFAAF42F6D80024F9
:101490002046BDE8F08120682146FFF763FAF6E7B1
:1014A00004300121FFF7C0B92DE9F04101210446C4
:1014B0000430FFF7C7F910F0FF0301D0BDE8F08159
:1014C0006779791E16D02246013399421268FBD102
:1014D000D2F80080002FF1D02668002501E03446C4
:1014E0003668214601354046FFF73CFAAF42F6D850
:1014F000BDE8F08120682146BDE8F041FFF732BA2F
:101500002DE9F8430546C6884079144606FB00F2EB
:10151000043A04EB030C1F1D624538BFD41ABE42C7
:101520008846B7FBF6F106FB117002D801392D6829
:10153000FCD1371AA74228BF27469CB14FF00009BB
:101540000430E41B28443A4608EB090101F075FD1C
:10155000A642B9442D6837464FF0000028BF274601
:10156000002CEDD1BDE8F8832DE9F8430546C68887
:101570004079144606FB00F2043A04EB030C1F1DED
:10158000624538BFD41ABE428846B7FBF6F106FB67
:10159000117002D801392D68FCD1371AA74228BF33
:1015A00027469CB14FF0000904302918E41B3A4645
:1015B00008EB090001F041FDA642B9442D68374609
:1015C0004FF0000028BF2746002CEDD1BDE8F8837E
:1015D0008268002393608268136182685361826825
:1015E000D3608268536082681360704761DF704720
:1015F000144B1B782BB330B5134D91B034240DF13F
:10160000020103A8ADF80240FFF7F0FF88B92946B0
:1016100001A8FFF7C3F9029B002BF0D0D3E900210A
:1016200003A8904701A8FFF7C3F9029B002BF5D14F
:10163000E5E7052801D111B030BDFFF7C5F911B0BC
:1016400030BD704724080020C83300002DE9F04762
:1016500003888788103B98B004460A2B1CD8DFE823
:1016600003F030291B1B1B1B1B1B1B1E0600037AD0
:1016700046483F2B4FEA1314394667D8FFF71AF94B
:10168000032C65D042483946FFF714F9022C63D089
:1016900040483946FFF70EF918B0BDE8F087037AE5
:1016A000002BF9D1437A39481B0739466BD5FFF730
:1016B000F7F8F1E738483946FFF7FCF818B0BDE80D
:1016C000F087364A9368DB43009351686846FFF71A
:1016D0009DF8009B0193019B83B300263546294664
:1016E00001A8FFF7F1F828B118AB03EB4603013668
:1016F00023F8285C0135142DF1D10D960DF1340C31
:10170000BCE80F0002AD0FC5BCE80F000FC59CE898
:10171000070085E807008EB10DF10A08DFF888A000
:1017200008EB460638F8029F1D4D28464946043509
:10173000FFF7C0F8AA45F8D1B045F3D1132F12D95D
:101740000420FFF741F918B0BDE8F087FFF7A8F8CB
:101750000F483946FFF7A4F80E483946FFF7A0F8BE
:1017600018B0BDE8F0870C483946FFF799F80C48E7
:101770003946FFF795F8E37B012B8DD009483946B0
:10178000FFF78EF888E7FFF795F885E74008002017
:101790003C080020380800203008002028080020DD
:1017A0002C08002034080020A40800202DE9F04F68
:1017B000DFF8B09100EB400509EBC50583B0EE6A98
:1017C000012E07468A4690464FEA400407D0022E73
:1017D0004FD056B30026304603B0BDE8F08FAE6A56
:1017E000D5F824B05E457DD9013EA6EB0B062D6AE7
:1017F000464528BF4646A5EB0B0296427ED27B1C8F
:1018000003EB430309EBC30332465868514658447F
:1018100001F013FC274409EBC70906EB0B02304625
:10182000C9F8242003B0BDE8F08FAB6AD5F824B026
:101830005B459CBF2A6A9B18013BA3EB0B039845B1
:10184000C9D8044409EBC4040137256AA5EB0B068B
:1018500007EB4707B04509EBC7096FD2D9F8040079
:101860004246584401F0E9FB08EB0B03636246462D
:10187000B1E7013707EB47076C6AFF000026AB6A48
:10188000A34203F1FF3222D9131B2A6A434509EB15
:101890000701A2EB040B28BF43469B45486828BFBD
:1018A0009B46204451465A4601F0C7FB2B6A5C44D4
:1018B0009C425E44A8EB0B08DA440DD06C62B8F190
:1018C000000F88D0AB6AA34203F1FF32DCD82A6A4A
:1018D0001344013B1B1BD9E700246C62B8F1000FD5
:1018E000CDD178E72D6A2E44013EA6EB0B06464586
:1018F00028BF4646A5EB0B02964280D307F10108AC
:1019000008EB480809EBC8085146D8F804000192D2
:10191000584401F092FB751B019AD8F804005D440D
:101920000AEB02012A4601F088FB274409EBC709AC
:101930003046C9F8245003B0BDE8F08FD9F8040050
:101940005844C3443246ABEB050501F076FB0AEB85
:101950000601D9F804002A4601F06FFB464665628D
:1019600039E700BFC00A002038B5114C114B1248AE
:10197000E36110254FF40073104A11492362E064BB
:1019800000232565E01D0225A3626362E362A3656F
:101990006365E365A261A264C4E9045501F0A0FB9C
:1019A0000849204601F09CFB2023A37138BD00BFED
:1019B000C00A0020B4080020A4080020D43300008E
:1019C000E0330000E4330000826842B110B5044601
:1019D00043690168006998470023A36010BD704700
:1019E0000EB400B582B0039921B104AB01AA0193F2
:1019F00000F0ACF802B05DF804EB03B0704700BF34
:101A00002DE9F04F164683B0B142DDE90C920F4646
:101A100005469A46C0F095800B464FF00108B3FB8F
:101A2000F6F39E4208F10108F9D9D04538BFD046F7
:101A300012F00103019302D1B9F1000F5ED1AA683F
:101A4000012403E00AF1FF3A06FB04F4BAF1010FA6
:101A5000F8D8B7FBF4F39E42F6D9DFF8ECA007E024
:101A6000B442B4FBF6F31AD3AA681C46B7FBF3F3EF
:101A70001AF803B0BBF10A0F04FB137728D02B68C8
:101A8000511CA96003F802B0D5E901329A42E7D3AC
:101A90002846FFF799FFB4FBF6F3B442E4D2019B6A
:101AA0009BB1B9F1000F10D02024C84509F1FF39CE
:101AB0000BD2AB682A68591CA960D454D5E901320D
:101AC0009A4214D2B9F1000FEFD103B0BDE8F08F04
:101AD000511C2B68A9604FF00D019954D5E90132D2
:101AE0009A42CCD32846FFF76FFFAA68C7E728467B
:101AF000FFF76AFFB9F1000FD7D1E6E793071AD4D1
:101B00002024AA68C84502F1010199D22B68A96076
:101B10009C54D5E901329A4209F1FF3903D2B9F157
:101B2000000FEFD18CE72846FFF74EFFAA68B9F106
:101B3000000FE7D184E7BAF1000F0CBF3024202456
:101B4000DFE74FF0010870E7EC330000002900F0F8
:101B500054822DE9F04FDFF8B8950C7885B0064631
:101B600090460D464FF00D0A10E00A2CB36800F0C5
:101B7000AD803268591CB160D454D6E901329A4222
:101B800080F0A0802C78002C00F087800135002C9C
:101B900000F08380252CE8D1294600270D4611F856
:101BA000012B2D2A00F08880302A00F088802B2A13
:101BB0007AD02A2A00F09980A2F13003092B4FF045
:101BC00000040BD804EB840402EB440415F8012F45
:101BD000A2F13003092BA4F13004F3D92E2A00F02E
:101BE0009080002301E015F8012F02F0FB01682925
:101BF000F9D0252A00F07781583AD1B2202947D868
:101C0000202A45D8DFE812F03501440044004400A2
:101C100044004400440044004400440044004301A4
:101C200013014400440044004400130144004400F4
:101C30004400440044004400D20044004400A20098
:101C400044009400440044003501012098420246BB
:101C500038BF1A460292002C40F05081B80740F17C
:101C60006E81002B40F04E821C46BBF1000FC0F28B
:101C70000A827A0700F11A8207F00302022A00F0B2
:101C8000EA81CDE9004759460A223046FFF7B8FEFF
:101C900001352C78002C7FF479AF337B002B40F09A
:101CA0001C8105B0BDE8F08F0D4611F8012B2D2ADF
:101CB00047F004077FF478AF47F001076EE747F07D
:101CC00002076BE73046FFF77FFE5BE73268591C7F
:101CD000B16002F803A0D6E901239342FFF449AFB3
:101CE0003046FFF771FEB36843E7D8F800301A1D9D
:101CF000C8F800206A781C682E2A05F101057FF4D7
:101D000070AF6A78A2F13003092B05F101054FF09D
:101D100000033FF66AAF03EB830302EB430315F8BE
:101D2000012FA2F130010929A3F13003F3D95CE7B7
:101D3000D8F80020111DC8F8001011683046CDE910
:101D400000470A22FFF75CFE0135A2E7D8F8003011
:101D50001A1DC8F8002017F00107D3F800B040F0B2
:101D6000F080BBF1000F03D0584601F0C1F90746DF
:101D7000BC4240F24381002C00F04081202205E06B
:101D8000BC4200F03B81002C00F03881B168336820
:101D9000481CB0605A54D6E90130984204F1FF342F
:101DA000EED33046FFF710FE2022E9E7D8F80020F6
:101DB000131DC8F80030B36831681768581C30220A
:101DC000B060CA54D6E90123934280F0EF803268B4
:101DD000581C7821B060D154D6E901329A4280F083
:101DE000E0800F2F03D93B461B090F2BFCD84FF087
:101DF000805406E00F2C4FEA14137FF649AFB26807
:101E00001C46B7FBF4F319F803B0BBF10A0F04FB4F
:101E1000137754D03368511CB16003F802B0D6E98F
:101E200001329A42E6D33046FFF7CEFDE2E7D8F81A
:101E30000020111DC8F80010D2F800B08BEAEB7238
:101E4000A2EBEB72092A7FF700AFDFF8C8C20120CE
:101E500011466329ACFB02E200F101004FEAD20215
:101E6000F6DC9842024638BF1A460292002C45D151
:101E7000F4E6D8F80020111DC8F8001011683046AB
:101E8000CDE900471022FFF7BBFD013501E7D8F887
:101E900000301A1DC8F800201C78B3680A2C00F026
:101EA00011813268591CB160D454D6E901329A428A
:101EB000FFF4EEAE3046FFF787FD0135E9E6336803
:101EC000511CB16003F802A0D6E901329A42A1D3B5
:101ED0003046FFF779FDB2689CE7304605B0BDE8B3
:101EE000F04FFFF771BDB3683168581CB060CA5439
:101EF000D6E901329A42DDD20135CAE6BBF1000FC4
:101F000059DB7A0757D4B80702D5002B3FF4ADAEA2
:101F1000F9073FF5AAAE94B120220299A142BFF47D
:101F2000A4AEB168481CB06030684254D6E90101E3
:101F3000814204F1FF3480F0D480002CEDD10024E4
:101F400093E69BF80030002B00F0E080B0685F461D
:101F5000CBF101020A2B02EB070B3CD0411CB16014
:101F600031680B54D6E90130984226D217F8013F68
:101F7000002BEFD15C457FF68BAE202702E05C455D
:101F80003FF486AEB2683368511CB1609F54D6E905
:101F900001329A4204F1FF34F1D33046FFF714FDC9
:101FA000EDE73046FFF710FDB2681AE73046FFF75D
:101FB0000BFDB3680BE7013CA5E730460292FFF743
:101FC00003FD17F8013F002BD4D0029AB0680A2B0A
:101FD00002EB070BC2D1411CB160316801F800A0CF
:101FE000D6E901108842B9D33046CDE90232FFF775
:101FF000EBFCDDE90232B068B0E770479BF80040C7
:10200000002C3FF445AE0A2CB0680ED03368421C59
:10201000B2601C54D6E90130984214D21BF8014F2B
:10202000002C3FF435AE0A2CF0D13368421CB2606C
:1020300003F800A0D6E901309842E7D33046FFF715
:10204000C3FCB068E2E73046FFF7BEFC1BF8014F67
:10205000002CD8D11CE6002B7FF413AE8CB13022BB
:102060000299A142BFF40DAEB168481CB06030685F
:102070004254D6E90101814204F1FF343BD2002CE5
:10208000EED10024FDE5B1684A1CB26032682D2013
:102090005054D6E901219142CBF1000BFFF4ECAD95
:1020A00030460393FFF790FC039BE5E5B1684A1CBB
:1020B000B26032682B205054D6E901219142FFF4DE
:1020C000DBADEDE73268591CB16002F803A0D6E938
:1020D00001239342FFF4E5AE3046FFF775FCB36889
:1020E000DFE630460393FFF76FFC039B2022002CB2
:1020F0007FF413AF23E730460393FFF765FC039BA0
:102100003022BCE7F9073FF5B0AD18E79B4631E751
:10211000EC330000CDCCCCCC2DE9F0410120FEF712
:1021200015FB4FF400410020FEF790FD124F134DB8
:10213000DFF85080FEF77AFD114BFF1AFF083F04CD
:1021400047F0030745F00105FEF7DAFD00263046AB
:10215000FEF7EAFAC8244FF47A40A847013CFAD1C6
:102160000136042EF3D141463846FEF703FFFEF751
:10217000C7FD0028FBD1E7E72C3500001034000034
:102180002C350000FC33000003685A004CBF43F0BC
:10219000004323F000431844704700BF2DE9F84383
:1021A00029B34F1E044615463E464FF0000808EB83
:1021B000060101EBD171491004EBC1094846FFF754
:1021C000E3FF0346C80008308F42204409D0AB42E9
:1021D00009D8FFF7D9FF0138A8420AD201F1010856
:1021E000E5E7AB4205D9884501D04E1EDFE74FF049
:1021F00000094846BDE8F883012807D0022807D027
:10220000044B00280CBF1846002070470248704756
:1022100002487047BD280000C1280000C528000002
:1022200030B5234B83B004468D1E3BB301A928462D
:10223000AFF30080E8B101992A46FFF7AFFF0146EE
:10224000B8B1FFF7A1FF4B68A064012B2BD0002B86
:1022500001F1040023DBFFF797FF0023C4E9130318
:102260000368002B10DBFFF78FFF2061002003B015
:1022700030BD00230920236103B030BD0D490E4855
:10228000091AC9100191D7E7C3F30360FFF7B4FF40
:102290000028206114BF0020092003B030BD0123B5
:1022A000C4E91303DCE7002323610520DFE700BF57
:1022B0000000000050360000883500000368DA078F
:1022C00010B5044606D49B0700F1480009D500F07C
:1022D0004BFC2368590709D51A070ED5DB0613D521
:1022E00010BD00F039FC23685907F5D404F1D00083
:1022F00000F042FC23681A07F0D404F5A87000F03F
:1023000043FC2368DB06EBD404F5E870BDE810401D
:1023100000F07EBC0346006800B11844704700BF5F
:1023200009207047704700BF70B504460E46316CF7
:102330002046FFF775FF054688B9336C6361324666
:1023400023692146012098470828F0D0072806D1A4
:102350002846316CFFF7E6FF301D00F0F1FB00F07E
:1023600065FE00BF2DE9F0470D1D064614460FCD52
:10237000ADF5727D0DF10C0CACE80F000FCDACE8A3
:102380000F000FCDACE80F0095E80F0002ADF76825
:10239000D6F818808CE80F0000232B6021E02B6C0E
:1023A00073614FF4F07229467AA800F046FE336953
:1023B0007AAA314650469847889BCDE90058214675
:1023C0006B648146334632460120B8470446E8B97B
:1023D0004FF4F0727AA9284600F02FFEB9F1080FE9
:1023E0001BD1296C3046FFF71BFF09345FFA84FAD2
:1023F00081460028D3D0AB6B4AF01001CDE90058DC
:1024000032466B6401203346B84708B14FF00909E2
:1024100048460DF5727DBDE8F087B9F1070FF5D19B
:102420002046296CFFF77EFF03A800F089FB00BF60
:10243000406C7047F0B5CB6B0B640E1D0F46054624
:102440000FCEF9B001AC0FC40FCE0FC40FCE0FC426
:1024500096E80F004FF0FF3684E80F00009606E084
:102460002B696A46294698470828044608D11099DE
:102470002846FFF7D5FE0028F2D0092079B0F0BD3C
:102480006846FFF71BFF062CF7D139462846FFF7B1
:102490004BFF00BF30B4DD6BC160826119461D6423
:1024A000002230BC5EE700BF70B5C66843690B64AC
:1024B000AEB903690A4604460D4601460220984714
:1024C000072805D008280FD129462046FFF72CFF02
:1024D0003046296CFFF726FF281D00F031FB012252
:1024E000FFF740FF00F0A2FD00F0A0FDC2681AB1A6
:1024F000CA6B0A64002235E79CE700BF704700BF43
:10250000836801460BB1012018477047012912D09A
:1025100009D873B90F2A0CD800EB82021846536809
:10252000009A136070470339012994BF01200220EB
:102530007047022070470846704700BF10B584B04E
:10254000002303AC0A4600941946FFF7DFFF039807
:1025500004B010BD012912D009D873B90F2A0CD8C4
:1025600000EB8200009A12684260184670470339F7
:10257000012994BF012002207047022070470846BD
:10258000704700BF10B584B0002303AC03920094E1
:102590000A461946FFF7DEFF04B010BDF0B5D36B55
:1025A0001364151D8C4606460FCDADF50F7D17AC97
:1025B0000FC40FCD0FC40FCD0FC495E80F004FF01F
:1025C000FF3784E80F006546169710E0FFF7DAFF43
:1025D000294616A8B047034616AA6946082083B9BB
:1025E000049B9847052804460CD0092809D0269951
:1025F0006846FFF715FE03466A460C2116A8002B15
:10260000E4D0092416A8FFF759FE20460DF50F7DEA
:10261000F0BD00BF2DE9F04FCC6C89B00D4654F8E9
:10262000041B0694174600F003081E46002B79D0C1
:102630000B0CDAB209048DF81D30022304EB82047E
:1026400005918DF81C302B6DB8F1020F08BFAC6BF3
:1026500013F001030CD0384605A900F073FB18B93C
:10266000082009B0BDE8F08F092009B0BDE8F08F5F
:10267000D4F800A0BAF1000FEDD0019300F00803E8
:102680000293022E4AD0B4F800A0B4F802900434A9
:10269000AA6C29F0010B0F2138469344FFF74EFF37
:1026A000834539D82AF001025A44824294BF00205F
:1026B00001204FEA490303F002030AF0010A43EA4A
:1026C0000A03012B49D0022B32D0002BCCD1B8F118
:1026D000000F02D0002840F0CD800434D4F800A0D0
:1026E000BAF1000FCDD105A9384600F02BFB002828
:1026F000BAD1019B002BB3D00F213846FFF71EFF44
:102700000E2102463846FFF73DFF38466A4A0F2140
:10271000FFF738FF0720A8E70020CAE7D4F80490A5
:102720000834B5E7090203230591ADF81C308AE7A8
:10273000236823F0004BB8F1000F45D128B1029A6D
:10274000002A5CD0BBF1000F74D0002B00DA0434F7
:102750000BF1010B04EB8B04C0E7B8F1000F19D1AA
:10276000B0B1D4E90023991C4FEAD2723FF47CAF98
:1027700005F158010133049100F09080201DFFF70E
:10278000C9FD04AB01462846AFF3008000285BD1A9
:102790000834A3E70D213846D5F82090FFF7CEFE88
:1027A0008145F5D1AB6A9C42F2D12046FFF7ECFCA3
:1027B0000F2102463846FFF7E5FE38462A4600213B
:1027C000FFF7E0FE072050E70D213846D5F82090AE
:1027D000FFF7B4FE814501D02368B6E7AB6A9C429F
:1027E000FAD104220021C5E90B12A318C5F828B0BC
:1027F0006B6323688B4259DB01230193A8E705F142
:102800005803CDF80C8004F1040AB04691461E46E8
:102810000DE00496FFF77EFD04AB0146002228463A
:10282000AFF3008009F101090AF1040AE8B9D945BA
:102830005046EED138460D21FFF780FE049B2862FA
:10284000C5E90934062010E781460D213846FFF717
:1028500075FEB9F1020F286225D12B46049A43F880
:102860002C2F6B62AC620620FFE646462368DDF83B
:102870000C806AE72046FFF787FC04340246AC630D
:1028800028461446AFF3008000283FF4EDAE3846EA
:1028900022460F21FFF776FE0720E6E638460D2197
:1028A000FFF74CFE2862049B6B62DBE70BF1010033
:1028B00004EB80007AE700BF000000000023A9E6D7
:1028C0000123A7E60223A5E62DE9F0430646C3B09F
:1028D00015461C46042900F2B980DFE801F09A533E
:1028E000B7290300002C40F0B180102A00F2AE801E
:1028F0000368D80600F1F38020AF384600F092F963
:10290000B06B0023012404FA03F22A42014604D0EA
:1029100051F8042B47F8232008460133042BF2D149
:10292000B063384600F074F9002043B0BDE8F0838E
:10293000032C40F08B8094B204EB1243102B4FEA2F
:10294000124500F2838003681F0700F1D08020AF9A
:10295000384600F03BF907EBC501B56B54B10B46A7
:10296000E81A01EBC401E4001A5843F8042B8B4227
:10297000FAD125443846B56300F006F9002043B08B
:10298000BDE8F083012C4FEA124895B25AD0052CCD
:102990005CD108EB0509B9F1200F57D8B8F10F0F3A
:1029A00077D9A946002D40F08880B36B6DB320AF76
:1029B0004FF0000907EBC807043F03EBC50553F8C8
:1029C000041B47F8041FAB42F9D1B9F1000F0FD037
:1029D0006F464146102938BF102107EBC1018439E9
:1029E00003EBC90553F8040B41F8040FAB42F9D1CE
:1029F000012C00F08480B8F10F0FB56345D9B9F10F
:102A0000000F02D0684600F0B7F8002043B0BDE8E0
:102A1000F083DCB9876B2346012094B206F1040CE5
:102A200000FA03F22242394604D051F8042B4CF844
:102A300023200F460133102BF2D115F40050E4D1BE
:102A4000B76304E008EB0503102B03D9022043B061
:102A5000BDE8F083B8F10F0FF8D83368DA0706D570
:102A6000304623F0030340F8483B00F079F820AFEC
:102A7000384600F075F8B36B002D99D11D4604352A
:102A8000B563384600F068F8BFE720A800F06CF89E
:102A9000B5E7B9F1100F40D9A9F110093368D9078A
:102AA00008D523F00103304643F0020340F8483BC9
:102AB00000F05EF8B9F1000F32D033685A0720D425
:102AC000B8F10F0F25D96F463846C8F1100500F050
:102AD00057F8002DB36B7FF77CAF20AF6AE723F088
:102AE0001003336006F5E87000F09CF804E723F06B
:102AF0000803036000F5A87000F068F827E720AF2E
:102B0000BDE7304623F0040340F8D03B00F038F82E
:102B1000D6E720A800F02CF8D5E74FF00009BDE774
:102B2000B8F10F0F3FF641AF20AF384600F020F864
:102B3000B36B002D7FF43CAF384600F015F864E726
:102B400000F1340191E838009C46A6464CF8045D3B
:102B500090E8FF0FE54600BD90EC210B704700BFE9
:102B600080EC210B704700BF90EC200B704700BF3A
:102B700080EC200B704700BFD0EC200B704700BFEB
:102B8000C0EC200B704700BFF0EC0201F0EC02112A
:102B9000F0EC0221F0EC0231F0EC0241F0EC0251D9
:102BA000F0EC0261F0EC0271F0EC0281F0EC0291C9
:102BB000F0EC02A1F0EC02B1F0EC02C1F0EC02D1B9
:102BC000F0EC02E1F0EC02F1704700BFE0EC020132
:102BD000E0EC0211E0EC0221E0EC0231E0EC024119
:102BE000E0EC0251E0EC0261E0EC0271E0EC028109
:102BF000E0EC0291E0EC02A1E0EC02B1E0EC02C1F9
:102C0000E0EC02D1E0EC02E1E0EC02F1704700BF41
:102C1000B0FC0181B0FC0191B0FC01A1B0FC01B19C
:102C2000704700BFA0FC0181A0FC0191A0FC01A1A4
:102C3000A0FC01B1704700BFEC4600B52DE9005083
:102C40002DE9FF1F4FF000032DE90C0001A9FFF74C
:102C5000F1FBDDF840E012B0704700BFEC4600B574
:102C60002DE900502DE9FF1F4FF000032DE90C0066
:102C700001A9FFF719FCDDF840E012B0704700BF72
:102C8000EC4600B52DE900502DE9FF1F4FF0000381
:102C90002DE90C0001A9FFF729FCDDF840E012B096
:102CA000704700BFEC4600B52DE900502DE9FF1F2D
:102CB0004FF000032DE90C0001ABFFF7EBFBDDF853
:102CC00040E012B0704700BFEC4600B52DE900505F
:102CD0002DE9FF1F4FF000032DE90C0001AAFFF7BB
:102CE0005DFCDDF840E012B0704700BF027A7AB9AF
:102CF000437AA3B14268013B10B4437213680321C5
:102D0000141D01721A024460026010BC180E704754
:102D10000368013A02721A020260180E7047B0206E
:102D2000704700BF00B585B003AA00230092194682
:102D30000C22FFF7EBFB039805B05DF804FB00BF26
:102D4000F0E700BF2DE9F043054685B00E464FF091
:102D500000083046FFF7CAFFB028044600F0B280F2
:102D6000070620D500F0F003802B4DD0902B36D0F5
:102D7000A02B60D0B02B74D0C02B00F08B8000F063
:102D8000F803D02B0BD100F00702013242F40022ED
:102D9000052301212846FFF797FD0028D9D00920F7
:102DA00005B0BDE8F0830DF10C090023194687003A
:102DB000CDF800900D222846FFF7A8FBFFB2039B39
:102DC000CDF80090043760064CBFDF1BFF180023CE
:102DD00019460D2228460397FFF7BCFBB9E700F020
:102DE0000D030D2BDBD003AF002300F00F021946BB
:102DF00000972846FFF78AFB0023009719460D220B
:102E00002846FFF7A7FBA4E73046FFF76FFF240231
:102E10002043B0F5004FC2D004010023A2B21946EE
:102E20002846FFF751FD0028B9D114F4004F18BF10
:102E30004FF001088DE7C24302F007034FF47F62B1
:102E40001A41010702F47F624FF0000348BF42F4C9
:102E5000804219462846FFF737FD00283FF479AF36
:102E60009DE7B12833D0B22800F08B80B32839D049
:102E700000F0FC03B42B92D000F0070201320123D2
:102E800042F4002219462846FFF71EFD00283FF4B1
:102E900060AF84E7C62842D0C7284CD000F0F803C2
:102EA000C02B5BD0C82860D0C9287FF478AF3046EB
:102EB000FFF71CFF020300F00F0002F47022013044
:102EC000024365E7B8F1000F18D0002068E73046EC
:102ED000FFF70CFF024600283FF461AF10F0F0034B
:102EE000D0D05CE73046FFF701FF010300F00F0090
:102EF00001F47021421C01230A43C3E703AC43469B
:102F00000E22414600942846FFF700FB0094284615
:102F100043460F224146FFF71DFB404640E730463F
:102F2000FFF7E4FE010300F00F0001F47021421CE2
:102F300003230A43A6E73046FFF7D8FE02460028DF
:102F40003FF42DAF10F0F0037FF429AF04212846A1
:102F5000FFF7BAFC00283FF4FCAE20E700F00F02B8
:102F60000132032342F420228CE73046FFF7BEFEF5
:102F700000F0F00200F00F031032013343EA023296
:102F800006E700230DF10C090D221946CDF800903B
:102F90002846FFF7BBFA3046FFF7A8FE02064FF0BF
:102FA00002070CD5039B00F07F00B8400344304675
:102FB0000393FFF79BFE030607F10707F2D4039B79
:102FC000CDF8009000F07F0403F50172BC400023AF
:102FD000144419460D2228460394FFF7BBFAB8E6BD
:102FE00010B5C26C84B0536803248DF80C401B02EA
:102FF00002F108040846D279019301A902948DF8E0
:103000000D20FFF79FFE04B010BD00BF08B5FFF70D
:1030100097FE806C08BD00BF08B5FFF791FEC06C3D
:10302000C379023300EB830008BD00BF08B506205A
:1030300000F03AF80120FDF77DF90A44914200F1D1
:10304000FF3300D1704710B511F8014B03F8014F61
:103050009142F9D110BD1F2938B504460D4604D957
:10306000162303604FF0FF3038BD426C12B152F8A6
:1030700021304BB9204600F031F82A46014620465F
:10308000BDE8384000F018B8012B0AD0591C03D114
:10309000162303600120E7E7002442F82540284674
:1030A00098470020E0E70000024B01461868FFF750
:1030B000D2BF00BF0000002038B5074D00230446F2
:1030C000084611462B6000F023F8431C02D12B6800
:1030D00003B1236038BD00BF380B002000F010B8EA
:1030E000034611F8012B03F8012B002AF9D1704790
:1030F000034613F8012B002AFBD1181A0138704738
:10310000024B58221A604FF0FF307047380B0020F6
:10311000024B58221A604FF0FF307047380B0020E6
:10312000F8B500BFF8BC08BC9E467047F8B500BFB4
:10313000F8BC08BC9E46704704000020111213140E
:103140006E72665F73646800243500002C350000E1
:1031500008000000466174616C206572726F720035
:1031600053797374656D2072657365740000000097
:103170000338FDD870470000D90A00004D0B00004D
:10318000D50A00007274745F6C6F675F6261636B75
:10319000656E64004261636B656E647320666C7576
:1031A0007368656400000000617070008C07002087
:1031B0007F0000000C0800201B5B313B33316D00A9
:1031C00025734C6F67732064726F7070656420287C
:1031D00025642925730D0A001B5B306D000000007B
:1031E000257300003C25733E2025733A2000000023
:1031F0000D0A000020253032780000002020200039
:103200007C000000256300001B5B313B33306D0008
:103210001B5B313B33326D001B5B313B33336D0045
:103220001B5B313B33346D001B5B313B33356D0031
:103230001B5B313B33366D001B5B313B33376D001D
:103240006572726F720000007761726E696E67005E
:10325000696E666F000000006465627567000000BB
:10326000D831000008320000B831000010320000F0
:1032700018320000203200002832000030320000F6
:1032800038320000000000004032000048320000E8
:1032900050320000583200005570646174650000BF
:1032A00044656C65746500004F7574646174656491
:1032B000202830290000000053657276696365207C
:1032C0006368616E6765642070656E64696E67200F
:1032D000666C6167000000004F757464617465641A
:1032E00020283229000000004F7574646174656401
:1032F00020283329000000004170706C69636174FC
:10330000696F6E20646174610000000052656D6F2A
:1033100074652064617461626173650050656572F3
:103320002072616E6B000000426F6E64696E6720F0
:1033300064617461000000004C6F63616C20646123
:10334000746162617365000043656E7472616C2024
:1033500061646472657373207265736F6C757469F0
:103360006F6E0000456E6372797074696F6E000055
:10337000426F6E64696E670050616972696E6700C2
:10338000496E76616C696420526F6C6500000000C4
:103390005065726970686572616C000043656E7497
:1033A00072616C00706565725F6D616E61676572F8
:1033B0005F68616E646C6572000000006E72665F2B
:1033C0007364685F626C65001C3500002435000082
:1033D000080000005465726D696E616C00000000A9
:1033E0005254540053454747455200003031323360
:1033F000343536373839414243444546636F756347
:103400006F750A00000000000000000000000000CE
:103410000338FDD8704700202020202020202020C5
:103420002828282828202020202020202020202074
:1034300020202020202020881010101010101010A4
:1034400010101010101010040404040404040404E8
:103450000410101010101010414141414141010170
:10346000010101010101010101010101010101014C
:10347000010110101010101042424242424202025A
:10348000020202020202020202020202020202021C
:1034900002021010101020000000000000000000C8
:1034A000000000000000000000000000000000001C
:1034B000000000000000000000000000000000000C
:1034C00000000000000000000000000000000000FC
:1034D00000000000000000000000000000000000EC
:1034E00000000000000000000000000000000000DC
:1034F00000000000000000000000000000000000CC
:1035000000000000000000000000000000000000BB
:0C351000000000000000000000000000AF
:08351C004D1600000000000044
:08352400F11500000000000099
:10352C00A831000000000303403100000000030339
:10353C00BC33000000000303A433000000000303AD
:10354C007831000000000000843100006800002089
:10355C00980200206003002068030020A0020020D5
:04356C001800000043
:1035700008B10181B0B000840000000008B10181F1
:08358000B0B00084000000005F
:10358800B8CCFF7F0100000088EBFF7FB0B0AC80B3
:10359800F0EBFF7F0100000080ECFF7FB0A9028004
:1035A80014EDFF7FB0B0A88064EDFF7F010000003C
:1035B80070EDFF7FB0B0AA80A4EDFF7FAE71B2803E
:1035C80068EEFF7F0100000064EEFF7FAB3F3880AC
:1035D800BCEEFF7F01000000C8EEFF7FB0B0AA80FC
:1035E80004EFFF7F01000000ACEFFF7FAB0EB2805D
:1035F8001CF0FF7FB0AF0880BCF2FF7F0100000025
:10360800C0F2FF7FAD3F028030F5FF7F0100000070
:103618000CF7FF7F0084048020F7FF7F0100000083
:103628001CF7FF7FB0AD0480B0F9FF7FB0A803801E
:10363800D4F9FF7F34FFFF7FD8F9FF7F38FFFF7F82
:08364800E4F9FF7F010000001E
:103650000400002000000000000000000000000046
:10366000000000000000000000000000000000005A
:10367000000000000000000000000000000000004A
:10368000000000000000000000000000000000003A
:10369000000000000000000000000000000000002A
:1036A000000000000000000000000000000000001A
:1036B000000000000090D00300000000FF000000A8
:0836C0002502000001020000D8
:04000003000006ED06
:00000001FF
